:020000040800F2
:100000000000022071100008C1100008C110000893
:10001000C1100008C1100008C11000080000000055
:10002000000000000000000000000000C1100008F7
:10003000C110000800000000C1100008C110000835
:10004000C1100008C1100008C1100008C11000084C
:1000500000000000C1100008C1100008C110000815
:10006000C1100008C1100008C1100008C11000082C
:10007000C1100008C1100008C1100008C11000081C
:10008000C1100008C1100008C1100008C11000080C
:10009000C1100008C1100008C1100008C1100008FC
:1000A000C1100008C1100008C1100008C1100008EC
:1000B000C1100008C1100008C1100008C1100008DC
:1000C000C1100008C1100008C1100008C1100008CC
:1000D000C1100008C1100008C1100008C1100008BC
:1000E000C1100008C1100008C1100008C1100008AC
:1000F000C1100008C1100008C1100008C11000089C
:10010000C1100008C1100008C1100008C11000088B
:10011000C1100008C1100008C1100008C11000087B
:10012000C1100008C1100008C1100008C11000086B
:10013000C1100008C1100008C1100008C11000085B
:10014000C1100008C1100008C1100008C11000084B
:10015000C1100008C1100008C1100008C11000083B
:10016000C1100008C1100008C1100008C11000082B
:10017000C1100008C1100008C1100008C11000081B
:08018000C1100008C1100008C5
:1001880010B5054C237833B9044B13B10448AFF3C9
:1001980000800123237010BD000000200000000033
:1001A8000C11000808B5034B1BB103490348AFF312
:1001B800008008BD00000000040000200C110008A9
:1001C80070B54FF0FF0C4CF4E06C1CEA11541DBFE5
:1001D8001CEA135594EA0C0F95EA0C0F00F0DEF8B0
:1001E8002C4481EA030621EA4C5123EA4C5350EA95
:1001F800013518BF52EA033541F4801143F48013E6
:1002080038D0A0FB02CE4FF00005E1FB02E506F076
:100218000042E0FB03E54FF00006E1FB03569CF0CB
:10022800000F18BF4EF0010EA4F1FF04B6F5007FD1
:1002380064F5407404D25FEA4E0E6D4146EB060643
:1002480042EAC62141EA55514FEAC52040EA5E50CC
:100258004FEACE2EB4F1FD0C88BFBCF5E06F1ED876
:10026800BEF1004F08BF5FEA500E50F1000041EBAD
:10027800045170BD06F0004646EA010140EA02005A
:1002880081EA0301B4EB5C04C2BFD4EB0C0541EA7C
:10029800045170BD41F480114FF0000E013C00F391
:1002A800AB8014F1360FDEBF002001F0004170BDB5
:1002B800C4F10004203C35DA0C341BDC04F11404CE
:1002C800C4F1200500FA05F320FA04F001FA05F25A
:1002D80040EA020001F0004221F0004110EBD37027
:1002E80021FA04F642EB06015EEA430E08BF20EA53
:1002F800D37070BDC4F10C04C4F1200500FA04F3F6
:1003080020FA05F001FA04F240EA020001F0004187
:1003180010EBD37041F100015EEA430E08BF20EAFA
:10032800D37070BDC4F1200500FA05F24EEA020E42
:1003380020FA04F301FA05F243EA020321FA04F071
:1003480001F0004121FA04F220EA020000EBD37028
:100358005EEA430E08BF20EAD37070BD94F0000F28
:100368000FD101F00046400041EB010111F4801F5C
:1003780008BF013CF7D041EA060195F0000F18BF0D
:10038800704703F00046520043EB030313F4801F49
:1003980008BF013DF7D043EA0603704794EA0C0F03
:1003A8000CEA135518BF95EA0C0F0CD050EA410619
:1003B80018BF52EA4306D1D181EA030101F0004196
:1003C8004FF0000070BD50EA410606BF10461946BE
:1003D80052EA430619D094EA0C0F02D150EA0136CA
:1003E80013D195EA0C0F05D152EA03361CBF10460B
:1003F80019460AD181EA030101F0004141F0FE41AA
:1004080041F470014FF0000070BD41F0FE4141F42D
:10041800780170BD81F0004102E000BF83F0004325
:1004280030B54FEA41044FEA430594EA050F08BF87
:1004380090EA020F1FBF54EA000C55EA020C7FEA4B
:10044800645C7FEA655C00F0E2804FEA5454D4EBC8
:100458005555B8BF6D420CDD2C4480EA020281EA92
:10046800030382EA000083EA010180EA020281EACA
:100478000303362D88BF30BD11F0004F4FEA01311C
:100488004FF4801C4CEA113102D0404261EB41012B
:1004980013F0004F4FEA03334CEA133302D05242B1
:1004A80063EB430394EA050F00F0A780A4F101046D
:1004B800D5F1200E0DDB02FA0EFC22FA05F28018A7
:1004C80041F1000103FA0EF2801843FA05F359418D
:1004D8000EE0A5F120050EF1200E012A03FA0EFC0C
:1004E80028BF4CF0020C43FA05F3C01851EBE37136
:1004F80001F0004507D54FF0000EDCF1000C7EEB53
:1005080000006EEB0101B1F5801F1BD3B1F5001F90
:100518000CD349085FEA30004FEA3C0C04F10104AF
:100528004FEA445212F5800F80F09A80BCF1004FD8
:1005380008BF5FEA500C50F1000041EB045141EA5A
:10054800050130BD5FEA4C0C404141EB0101013C23
:1005580028BFB1F5801FE9D291F0000F04BF014612
:100568000020B1FA81F308BF2033A3F10B03B3F1E4
:1005780020020CDA0C3208DD02F1140CC2F10C0274
:1005880001FA0CF021FA02F10CE002F11402D8BFD2
:10059800C2F1200C01FA02F120FA0CFCDCBF41EA9E
:1005A8000C019040E41AA2BF01EB0451294330BD6D
:1005B8006FEA04041F3C1CDA0C340EDC04F114044A
:1005C800C4F1200220FA04F001FA02F340EA030021
:1005D80021FA04F345EA030130BDC4F10C04C4F167
:1005E800200220FA02F001FA04F340EA0300294647
:1005F80030BD21FA04F0294630BD94F0000F83F491
:10060800801306BF81F480110134013D4EE77FEA73
:10061800645C18BF7FEA655C29D094EA050F08BFBF
:1006280090EA020F05D054EA000C04BF19461046A0
:1006380030BD91EA030F1EBF0021002030BD5FEAE4
:10064800545C05D14000494128BF41F0004130BD0C
:1006580014F580043CBF01F5801130BD01F0004560
:1006680045F0FE4141F470014FF0000030BD7FEAD3
:10067800645C1ABF194610467FEA655C1CBF0B46CE
:10068800024650EA013406BF52EA033591EA030FE5
:1006980041F4002130BD00BF90F0000F04BF0021DD
:1006A800704730B54FF4806404F132044FF0000510
:1006B8004FF0000150E700BF90F0000F04BF002189
:1006C800704730B54FF4806404F1320410F00045EF
:1006D80048BF40424FF000013EE700BF42004FEAEA
:1006E800E2014FEA31014FEA02701FBF12F07F4367
:1006F80093F07F4F81F06051704732F07F4208BF1E
:10070800704793F07F4F04BF41F40021704730B524
:100718004FF4607401F0004521F000411CE700BF70
:1007280050EA010208BF704730B54FF000050AE0F3
:1007380050EA010208BF704730B511F0004502D5F4
:10074800404261EB41014FF4806404F132045FEAF6
:10075800915C3FF4D8AE4FF003025FEADC0C18BF9F
:1007680003325FEADC0C18BF033202EBDC02C2F191
:10077800200300FA03FC20FA02F001FA03FE40EA23
:100788000E0021FA02F11444BDE600BF4A0011D25E
:1007980012F5001211D20DD56FF47873B3EB6252D3
:1007A8000ED44FEAC12343F0004343EA505323FADF
:1007B80002F070474FF00000704750EA013002D154
:1007C8004FF0FF3070474FF00000704780B582B09F
:1007D80000AF0023FB7123E0184B1B781A46184B17
:1007E8009A5CFB799A4211D1144B1B780133DAB227
:1007F800124B1A70114B1B781A46114B9B5C002B3D
:100808000ED10E4B00221A70012312E00C4B1A78FD
:10081800FB799A4201D1012200E00022074B1A70AD
:10082800084BDB68FA1D104698470346002BD3D1C6
:10083800002318460837BD4680BD00BF1C000020B5
:10084800541100088011000880B483B000AF03463B
:10085800FB71FB7903F00F03FB71FB79092B03D8BC
:10086800FB793033DBB202E0FB793733DBB2184671
:100878000C37BD465DF8047B7047000080B584B036
:1008880000AF0346FB7130233B7278237B72FB7900
:100898001B09DBB21846FFF7D7FF0346BB72FB798B
:1008A8001846FFF7D1FF0346FB7200233B73054B45
:1008B8009B6807F108021046984700BF1037BD46ED
:1008C80080BD00BF8011000880B400AF164B1B6BC1
:1008D800154A43F004031363144B1B68134A23F0AF
:1008E80040631360114B1B68104A43F08063136028
:1008F8000E4B5B680D4A23F4005353600B4B9B6807
:100908000A4A43F040639360084BDB68074A23F0C8
:100918004063D360054B4FF000529A6100BFBD465B
:100928005DF8047B704700BF0038024000080240B1
:1009380080B400AF044B4FF400529A6100BFBD462B
:100948005DF8047B704700BF0008024080B400AF28
:10095800044B4FF000529A6100BFBD465DF8047B1E
:10096800704700BF0008024080B582B000AF002386
:10097800FB711C4B1B6898471B4B1B6898471B4B0C
:100988001B689847FFF7A0FFFFF720FF0346002BDF
:10099800FAD0164BDB68FA1D00211520984703464C
:1009A800002B18D1FB79202B06D1FFF7C1FF0E4B86
:1009B8009B680F489847E7E7FFF7C8FF0A4B9B6813
:1009C8000C489847FB791846FFF758FF064B9B6879
:1009D80009489847D8E7FFF7B9FF034B9B680748D2
:1009E8009847D1E774110008801100085C110008CD
:1009F80024110008301100084011000844110008B3
:100A080080B485B000AF786039600B4BFB6006E0BE
:100A1800FB685A1EFA60002B01D1022306E07B68AE
:100A28001A683B681340002BF2D00023184614378D
:100A3800BD465DF8047B7047A086010080B485B090
:100A480000AF786039600B4BFB6006E0FB685A1E0C
:100A5800FA60002B01D1022306E07B681A683B6824
:100A68001340002BF2D1002318461437BD465DF819
:100A7800047B7047A086010080B400AF044B4FF49C
:100A880000129A6100BFBD465DF8047B704700BF45
:100A98000004024080B400AF034B20229A6100BFDB
:100AA800BD465DF8047B70470004024080B483B003
:100AB80000AF44F620637B6000E000BF7B685A1EED
:100AC8007A60002BF9D100BF00BF0C37BD465DF836
:100AD800047B704780B500AF364B1B6B354A43F03B
:100AE80003031363334B5B6C324A43F48053536400
:100AF800314B1B68304A23F4406313602E4B1B684C
:100B08002D4A43F4806313602B4B5B682A4A23F019
:100B180020035360284B9B68274A43F44063936043
:100B2800254BDB68244A23F44063D360FFF7B2FF08
:100B3800224B1B68214A23F47C4313601F4B1B681C
:100B48001E4A43F4284313601C4B5B681B4A23F07E
:100B5800E0035360194B9B68184A43F47C43936045
:100B6800164BDB68154A23F47C43D360134B1B6A8E
:100B7800124AC3F313031362104B1B6A0F4A43F064
:100B8800AA4343F4A00313620D4B1B680C4A23F0DD
:100B9800400313600A4B40F23F321A60084B0022B0
:100BA8005A60074B1B68064A43F04003136000BFB6
:100BB80080BD00BF0038024000040240000002402F
:100BC8000030014080B584B000AF03463960FB7146
:100BD8003B68002B01D101232DE002211848FFF7C3
:100BE8000FFF0346002B01D0022324E0154AFB79AE
:100BF800137001211248FFF703FF0346002B01D0B1
:100C0800022318E00F4B1B78FB733B68FA7B1A70C2
:100C180002210B48FFF7F4FE0346002B01D0022304
:100C280009E080210648FFF709FF0346002B01D0A1
:100C3800022300E0002318461037BD4680BD00BFE0
:100C4800083001400C30014080B586B000AFF86034
:100C5800B9601346FB80BB68002B02D0FB88002BD1
:100C680001D101232BE0FFF707FF0023FB821FE0E0
:100C7800FB68002B04D0FB8AFA6813441B7800E059
:100C8800FF237B7507F114027B7D11461846FFF799
:100C980099FF0346002B03D0FFF7FCFE02230EE06A
:100CA800FB8ABA6813443A7D1A70FB8A0133FB82C7
:100CB800FA8AFB889A42DBD3FFF7ECFE002318463A
:100CC8001837BD4680BD80B584B000AF03463A6092
:100CD800FB710B46BB713B68002B01D1012320E05F
:100CE800FFF7CAFE07F10F02FB7911461846FFF716
:100CF80069FF0346002B03D0FFF7CCFE022310E068
:100D0800FFF7D4FEBB7939681846FFF75BFF034647
:100D1800002B03D0FFF7BEFE022302E0FFF7BAFE66
:100D2800002318461037BD4680BD000080B400AFD0
:100D3800244B1B68234A43F48033136000BF214BC4
:100D48001B6803F40033002BF9D01F4B40F20572E7
:100D58001A601C4B1D4A5A601A4B1B68194A43F00B
:100D68008073136000BF174B1B6803F00073002BE0
:100D7800F9D0144B134A9B689360124B9B68114A35
:100D880043F4A05393600F4B9B680E4A43F400430F
:100D980093600C4B9B680B4A43F00203936000BFBF
:100DA800084B9B6803F00C03082BF9D1054B1B6813
:100DB800044A23F00103136000BFBD465DF8047BBD
:100DC800704700BF00380240003C0240085440070A
:100DD80080B485B000AF78600023FB7309E000237E
:100DE800FB7303E000BFFB7B0133FB73FB7B632BCF
:100DF800F8D97B685A1E7A60002BF0D100BF00BF7B
:100E08001437BD465DF8047B704700000000000001
:100E180080B584B000AF78600023FB730023BB600B
:100E28007B681846FFF738FC15A3D3E90023FFF7C2
:100E3800C7F902460B461046194613A3D3E9002307
:100E4800FFF7EEFA02460B4610461946FFF79EFCDE
:100E58000346BB6009E00023FB7303E000BFFB7B94
:100E68000133FB73FB7B632BF8D9BB685A1EBA604E
:100E7800002BF0D100BF00BF1037BD4680BD00BFBA
:100E8800C2172653052F7140984C158C4AEAE03F4B
:100E980080B485B000AF786039603B685A087B68D9
:100EA8001A443B68B2FBF3F3FB60FB68184614373F
:100EB800BD465DF8047B704790B583B000AF2F4BFB
:100EC8001B6B2E4A43F0020313632C4B1B6C2B4AFB
:100ED80043F4802313642A4B1B68294A23F47003C4
:100EE8001360274B1B68264A43F420031360244BE6
:100EF8005B68234A23F440635360214B9B68204A74
:100F080043F4700393601E4BDB681D4A23F470039F
:100F1800D3601B4BDB681A4A43F48003D360184B39
:100F28005B6A174A23F47F435362154B5B6A144A82
:100F380043F4EE435362134B0022DA60114B002254
:100F48001A61104B00225A610F4B7B600D4C4FF415
:100F5800E1317868FFF79CFF0346A360094BDB6823
:100F6800084A43F00C03D360064BDB68054A43F498
:100F78000053D36000BF0C37BD4690BD0038024017
:100F8800000402400048004080DE800280B483B044
:100F980000AF0346FB71084AFB79536000BF064B5C
:100FA8001B6803F08003002BF9D000BF00BF0C378B
:100FB800BD465DF8047B70470048004080B582B0AC
:100FC80000AF786006E07B685A1C7A601B78184688
:100FD800FFF7DCFF7B681B78002BF4D100BF00BF54
:100FE8000837BD4680BD000080B483B000AF78608C
:100FF800094B1B6803F02003002B06D0064B5B68E7
:10100800DAB27B681A70012300E0002318460C3717
:10101800BD465DF8047B70470048004080B400AFCF
:1010280000BF074B1B6803F02003002BF9D0044BCB
:101038005B68DBB21846BD465DF8047B704700BFAD
:101048000048004080B400AF00BF064B1B6803F0A7
:101058004003002BF9D000BF00BFBD465DF8047BFC
:10106800704700BF004800400D488546AFF3008038
:101078000C480D490D4A002302E0D458C4500433EB
:10108800C4188C42F9D30A4A0A4C002301E01360C1
:101098000432A242FBD300F011F8FFF765FCFEE72B
:1010A800000002200000002000000020A01100081D
:1010B8000000002020000020FEE7000070B50D4B66
:1010C8000D4D5B1B9C100026A64209D100F01AF8B2
:1010D8000A4D0B4B5B1B9C100026A64205D170BD28
:1010E80055F8043B98470136EEE755F8043B984716
:1010F8000136F2E7981100089811000898110008C5
:101108009C110008F8B500BFF8BC08BC9E467047A3
:0C111800F8B500BFF8BC08BC9E4670474C
:10112400535049544553544F4B0D0A0053504945AD
:1011340052524F522052583D000000000D0A000048
:1011440053504954494D454F55540D0A0000000071
:1011540053504953454E4400DD0A0008CD0B0008A6
:10116400510C0008CF0C0008810A00089D0A0008F1
:10117400350D0008D90D0008190E0008C10E00082D
:10118400950F0008C50F0008F10F0008251000088E
:041194004D100008F2
:04119800AD0100089D
:04119C0089010008BD
:04000005080010716E
:00000001FF
